:020000040000FA
:10000000F0040002550200005D0200005F020000E3
:1000100000000000000000000000000000000000E0
:10002000000000000000000000000000B10100001E
:100030000000000000000000F5010000990F000022
:100040006902000069020000690200006902000004
:1000500069020000690200006902000069020000F4
:1000600069020000690200006902000069020000E4
:1000700069020000690200006902000069020000D4
:1000800069020000690200006902000069020000C4
:1000900069020000690200006902000069020000B4
:1000A00069020000690200006902000069020000A4
:1000B0006902000069020000690200006902000094
:1000C0006902000069020000690200006902000084
:1000D0006902000069020000690200006902000074
:1000E0006902000069020000690200006902000064
:1000F00069020000690200006902000000F002F8D5
:1001000000F046F80AA090E8000C82448344AAF16B
:100110000107DA4501D100F03BF8AFF2090EBAE869
:100120000F0013F0010F18BFFB1A43F0010318472B
:10013000D8280000F8280000103A24BF78C878C1F9
:10014000FAD8520724BF30C830C144BF04680C60DD
:10015000704700000023002400250026103A28BF25
:1001600078C1FBD8520728BF30C148BF0B60704729
:10017000642900F0CD81732900F00C8300207047C2
:100180001FB59DE8030000F064FA1FBD10B510BD57
:1001900000F0CFFB1146FFF7F3FF00F035FF00F052
:1001A000EDFB03B4FFF7F2FF03BC00F011FF00000A
:1001B000204B19680868B0E8F00F80F30988BFF396
:1001C0006F8F4FF0000080F311884EF00D0E7047D6
:1001D0000000000006480068006880F3088862B6E6
:1001E00061B6BFF34F8FBFF36F8F00DF00BF00BF5B
:1001F00008ED00E0EFF30980BFF36F8F0D4B1A6835
:1002000020E9F00F106008B54FF0A00080F31188CE
:1002100001F0DAFD4FF0000080F31188BDE80840DE
:1002200019680868B0E8F00F80F30988BFF36F8F92
:10023000704700BF00000002EFF311804FF0A001F3
:1002400081F31188704780F311887047EFF30580C0
:10025000704700000848804708480047FEE7FEE76F
:10026000FEE7FEE7FEE7FEE7FEE70000044805497B
:10027000054A064B70470000C90F0000FD00000052
:10028000F0010002F0040002F0020002F00200029D
:1002900070B5064600F02EF8056806F10B0020F058
:1002A0000704B4429CBF002070BD2B466A68BAB1F7
:1002B0001068A04210D304F1080188423CBF506886
:1002C000586007D35168101941601168091B01601B
:1002D00058601460101D70BD13465268002AE7D1A3
:1002E0002146284600F0A1F90028DED170BD7047F4
:1002F000704770470048704794010002FFFFFFFFFE
:1003000070B50446051FFFF7F5FF0068002C14BF09
:10031000446870BD002C18BFAC423CBF20466468E6
:10032000F8D301680A18AA4218BF456003D12A68A9
:1003300005461144016028684119A1421CBF6C6048
:1003400070BD6168696021680844286070BD53EA27
:10035000020C00F069802DE9F04B4FF00006002BF5
:100360001FBFB3FA83F503FA05F424FA05F65E40DD
:1003700012BF1643B2FA82F502FA05F4C5F1200560
:100380001EBF22FA05FC44EA0C04203556EA044C50
:100390004FEA144418BF641C4FF000084FF00009E6
:1003A000904271EB030C39D3002919BFB1FA81F7E0
:1003B00001FA07F6B0FA80F700FA07F6C7F120074E
:1003C0001EBF20FA07FC46EA0C062037B6FBF4FCF9
:1003D000A7EB0507103F07F01F0BCBF120060CFA27
:1003E0000BFB2CFA06F644BFB3460026202FA4BF11
:1003F0005E464FF0000B5BEA060C08BF4FF0010BA6
:1004000019EB0B09ABFB027C48EB0608C01B06FB93
:1004100002CC0BFB03CC71EB0C01C1E70B4602468F
:1004200041464846BDE8F08B13B54FF000004FF051
:100430000001AFF30080BDE81C4070470FB40449D1
:1004400010B503AA029800F0A9F910BC5DF814FBDE
:10045000540000022DE9F0410E46044600202062BF
:100460002046E168884730B3252805D0D4E901212A
:100470009047206A401CF2E7E16820460027884741
:10048000050018D0A5F14100192802D820354FF4F5
:1004900000673246294620462760FFF769FE40B1D3
:1004A000012804D0F61D26F007060836D8E7361DC9
:1004B000D6E72846DAE7206ABDE8F08170B50C4639
:1004C0000546012A05D02878800600D5EA69002370
:1004D00002E0012305E05B1C934202D2E05C0028AD
:1004E000F9D1A869E618C01AA861286A18442862D8
:1004F0002846AFF3008004E0D5E9012114F8010B90
:100500009047B442F8D32846AFF3008070BD000096
:100510002DE9F0410646002410687529314616A5DC
:1005200010D0AFF30080002802DA404213A507E0A4
:1005300031688A0701D512A502E0490704D511A543
:10054000012401E0AFF3008000210A2206F1240714
:1005500009E0B0FBF2FCB0FBF2F302FB1C00303010
:1005600078541846491C0028F3D123462A463046C1
:10057000BDE8F04100F0A3B8000000002D0000002D
:100580002B00000020000000032A40F2308010F011
:10059000030C00F0158011F8013BBCF1020F62441E
:1005A00098BF11F801CB00F8013B38BF11F8013BAF
:1005B000A2F1040298BF00F801CB38BF00F8013B5C
:1005C00011F0030300F0FC80083AC0F0088051F8F5
:1005D000043B083A51F804CBA0E80810F5E7121DD7
:1005E0005CBF51F8043B40F8043BAFF30080D207F6
:1005F00024BF11F8013B11F801CB48BF11F8012BC2
:1006000024BF00F8013B00F801CB48BF00F8012BE4
:10061000704702F0FF0343EA032242EA024200F07D
:1006200003B9704770477047704738B504460A46AB
:1006300000206946AFF30080002808BF38BD02469D
:100640000099204600F014F9012038BD012000F087
:1006500041B9F8B5AFF30080054600200C461020E4
:1006600000BF0646A819A0420DD9324669460020AF
:10067000AFF30080070008BF00F02CF90098A042FB
:1006800018BF0546C419FFF735FE05600746F01D83
:1006900020F007004619284600F00AF8B44208BFC7
:1006A000F8BDA21B31463868BDE8F84000F0E0B85C
:1006B00000210160C0E901107047102070472DE94A
:1006C000F0470D4699469246044600F12408016819
:1006D000880604D5E06921F01001216000E00120C6
:1006E000A84201DD471B00E00027A1697A1902EB4F
:1006F0000900081AA0612078C00602D42046AFF392
:100700000080002608E0D4E901211AF8060090478D
:10071000206A401C761C20624E45F4DB2078C0061F
:100720000AD52046AFF3008006E0D4E9012130204D
:100730009047206A401C2062381EA7F10107F4DCB4
:1007400007E0D4E9012118F805009047206A401C11
:100750002062281EA5F10105F3DC2046AFF30080DE
:100760002078000602D50220BDE8F0870120FBE7D3
:1007700010B5436913B1AFF3008001E0FFF79EFEAF
:10078000012010BD127800F124010A7000224A7085
:100790000122EDE711684FF0FF32E9E7074B70B532
:1007A0000D467B4400F083F80446284600F012FC16
:1007B00010B14FF0FF3070BD204670BD350800000D
:1007C00010B5203AC0F00B80B1E81850203AA0E8EC
:1007D0001850B1E81850A0E81850BFF4F5AF5FEA20
:1007E000027C24BFB1E81850A0E8185044BF18C9D3
:1007F00018C0BDE810405FEA827C24BF51F8043B7A
:1008000040F8043B08BF7047D20728BF31F8023BCD
:1008100048BF11F8012B28BF20F8023B48BF00F861
:10082000012B70474FF000020429C0F0128010F035
:10083000030C00F05880CCF1040CBCF1020F18BF7F
:1008400000F8012BA8BF20F8022BA1EB0C0100F04F
:100850004AB85FEAC17C24BF00F8012B00F8012BE5
:1008600048BF00F8012B7047004870478C01000218
:10087000034640688C46002818BF88423CBF0346A8
:100880004068F8D318681844884207D00CF1030078
:1008900020F00700001D411A521A0146081D0A6087
:1008A000FFF72EBD01694A1C02610878704700B548
:1008B0008FB0CDE901310021059105497944CDE999
:1008C000031011466846FFF7C5FD0FB000BD0000DC
:1008D000E5FFFFFF10B500F05FF8BDE8104000F045
:1008E00056B84FF0000200B513469446964620399C
:1008F00022BFA0E80C50A0E80C50B1F12001BFF4D9
:10090000F7AF090728BFA0E80C5048BF0CC05DF83E
:1009100004EB890028BF40F8042B08BF704748BF8C
:1009200020F8022B11F0804F18BF00F8012B704700
:1009300070477546FFF798FFAE4605006946534677
:1009400020F00700854618B020B5FFF78FFCBDE802
:1009500020404FF000064FF000074FF000084FF026
:10096000000B21F00701AC46ACE8C009ACE8C009B7
:10097000ACE8C009ACE8C0098D46704710B5044624
:10098000AFF300802046BDE81040FFF70ABC002806
:1009900001D000F01DBB704710B5012805D0002123
:1009A00003A000F021F8012010BD09A1F8E7000024
:1009B00053494752544D454D3A204F7574206F6648
:1009C0002068656170206D656D6F727900000000B0
:1009D0003A2048656170206D656D6F727920636F94
:1009E000727275707465640070B505460C460A2015
:1009F00000E06D1C00F011F835B128780028F8D11E
:100A000002E0641C00F009F814B120780028F8D145
:100A1000BDE870400A20AFF3008008B569468DF844
:100A200000000320ABBE08BD154810B5802141630E
:100A300081640D220021012000F0E8F9002112223A
:100A4000084600F0E3F900F0C9F8002100F06EF963
:100A50000C4C204600F05AFA206820F07C0040F050
:100A6000040020604FF4E131204600F089FA20684C
:100A700040F001002060606820F04000606010BD20
:100A800000800F40000004402DE9F041FFF7CCFF4B
:100A90004FF0E054204600F07FF90C4B0021DD1EA2
:100AA0000122585C6E5C04EB800000F50050076882
:100AB00002FA06F637430760585C6E5C04EB4010A0
:100AC0008255491C0329ECDBBDE8F0817729000041
:100AD00010B503280BD2064A054C4FF0E053E41E34
:100AE000125C205C03EB421281F00101115410BD35
:100AF0007729000010B500F0D9F90B4C0120C4F89B
:100B0000A4000320012161F39F10C4F8A001C805CF
:100B100000F0BEF9D4F8A40110F0010FFAD00120C2
:100B2000C4F8CC0010BD00000040074070B50D2097
:100B300000F044F80C2000F041F80D24204600F0AD
:100B40006BF9204600F07AF91D220A490A4800F0A4
:100B500039F9084D0024083D35F81410C8B2C1F326
:100B60004122C90A01EB421100F03EF9641C032C3A
:100B7000F2D370BD9429000000800F4010B5FFF73C
:100B8000D5FFFFF7B7FF02490120C1F8CC0010BD27
:100B90000040074001B501226946024800F0DEF935
:100BA00008BD00000000044010B5044602E0641CCB
:100BB000FFF7F0FF20780028F9D110BD0649012287
:100BC000202803D351F8C83F203801E051F8C43F32
:100BD000824013430B607047004007400448D0F840
:100BE000840010F0FF0F01D000F01EB800F002B832
:100BF0000040074008490020D1F8801011F0FF01A3
:100C000005D0012905D0022900D1044870470448C5
:100C1000704704480068704700400740D8AC0700A0
:100C2000001BB7006C2900000A490020D1F884108D
:100C300011F0FF0108D0012908D0022908D00329AA
:100C400001D1054800687047FFF7D4BF00F028B80D
:100C500000F02EB8004007407029000000F03F026D
:100C6000521C01FB02F0704710F0030003D0012872
:100C700003D0002070470248704702480068704760
:100C8000001BB7006C29000010B5FFF7A7FF034950
:100C9000D1F8C010B0FBF1F010BD000000400740DB
:100CA0000248D0F8A000FFF7DFBF00000040074077
:100CB00010B5FFF7F5FF01460348D0F89801BDE8ED
:100CC0001040FFF7CBBF00000040074070B50E4D4D
:100CD000D5F8D040B4B1FFF781FFB0FBF4F0D5F800
:100CE0002821002192B2D34313F0FF0F09D109024A
:100CF000120A41EA10610002002302F58072FFF738
:100D000026FB70BD002070BD004007400649042846
:100D100004D3001FC0B2C1F88400704741F8800FAF
:100D200000204860704700000040074070B50E4644
:100D30000446FFF753FF0146B0FBF4F000B9012071
:100D40000D4DC2B2C5F8D02000227EB104FB1013B5
:100D500004FB00F2190E18020023FFF7F8FA000650
:100D6000000C40F0FF00C5F8280101E0C5F828217B
:100D7000BDE87040FFF7AABF004007400549D1F821
:100D8000242100F0030022F4405242EA0030C1F86E
:100D9000240170470040074010B50E20FFF70EFFFA
:100DA0000F20FFF70BFF1020FFF708FF0B20FFF7C6
:100DB00005FF0B24204600F02FF82046BDE8104028
:100DC00000F03CB870B500230BE000BF51F82340A1
:100DD000E6B2C4F3072500EBC616240C46F82540FE
:100DE0005B1C9342F2D370BD0207520E00098300D0
:100DF000054810B503441868FF249440A04391406F
:100E00000143196010BD00000080034002EB411156
:100E1000C9B2FFF7E9BF0000074A0121202805D326
:100E2000936C203881400B4393647047536C81402E
:100E30000B4353647047000000400740074A0121FC
:100E4000202805D3936C203881408B4393647047EE
:100E5000536C81408B43536470470000004007404F
:100E600010B50446FFF7D8FF2046BDE81040FFF755
:100E7000E5BF0000044AD2F80812044B194018409C
:100E80000843C2F8080270470040074078FFFF019E
:100E9000044AD2F80812044B194018408143C2F8A2
:100EA000081270470040074078FFFF0138B54FF443
:100EB0000010FFF7EDFF00204FF400710090401C80
:100EC00000908842FBDB104C0120C4F8A00085058F
:100ED0002846FFF7CFFF0521022060F39F11C4F8D9
:100EE00098112846FFF7D4FFD4F89C0110F0010FA9
:100EF000FAD00120C4F8C0000220FFF73FFFBDE890
:100F000038400620FFF702BF0040074010B50446F6
:100F100000F06AF8FFF752FE0748844201D1312001
:100F200005E00648844201D1322000E03320BDE8CC
:100F30001040FFF795BF000000000440004004404F
:100F400010B50346002003E011F8014BDC61401CA2
:100F5000904202DA9C686407F6D410BDF0B51546DD
:100F6000074600260C4607E02A4621463846FFF78A
:100F7000E7FF2D1A06440444002DF5DC3046F0BD91
:100F800070B50D460446FFF7A1FE2901B0FBF1F153
:100F9000491E216270BD000010B5FFF74DF901F048
:100FA000D1FA18B14FF08050024908600020FFF7D5
:100FB0004AF910BD04ED00E010B5FFF765FE0149E8
:100FC000086010BD5800000210B5FFF7D7FD10BD36
:100FD00030BFFDE74FF0FF30704710B5C0B2FFF7EC
:100FE000D9FD002010BD00000549884201D1312003
:100FF00070470449884201D132207047332070473E
:1010000000000440004004401FB500F037FB002002
:101010000123CDE9003002900346822216A10390FD
:10102000184801F0DDF900200123CDE900300290DD
:101030000346822214A10390164801F0D1F9002042
:101040000123CDE9003002900346822212A10390D1
:10105000144801F0C5F900200123CDE900300290C9
:101060000346822210A10390124801F0B9F900F062
:101070006FFE012004B010BD765461736B4C656443
:1010800031000000E7180000765461736B4C656412
:1010900032000000FF180000765461736B4C6564E9
:1010A0003300000017190000765461736B556172AC
:1010B000740000007D1E000010B504460E48006854
:1010C00044600E480068844207D20B480168091D3D
:1010D0000B48006800F03BFC0CE007480168091D64
:1010E0000848006800F033FC07480068844201D2D9
:1010F0000548046010BD000000000002140000025A
:101100000800000204000002300000022DE9F04156
:1011100005460F461FB9A80000F060FB00E0384606
:10112000064656B1582000F059FB04460CB1266320
:1011300004E0304600F06AFC00E0002424B1A9007D
:10114000A522206BFFF765FA2046BDE8F08100007C
:1011500010B500F023FC1448006808BB134800F0E9
:10116000E6FB134800F0E3FB104812490860104802
:101170001149086000220C21052000F0E1FE0A4917
:1011800008600846006818B9FFF756F800BFFEE788
:101190000548006820B109A10348006800F086FCFA
:1011A00000F01EFC10BD00004000000264010002BF
:1011B00078010002380000023C000002546D7251B8
:1011C0000000000070B523E000F0F6FD1348006851
:1011D00008B9012000E00020054601F0F5FABDB98C
:1011E00000F0DCFB0D48C068C468201D00F026FB41
:1011F0000B480068401E0A4908600A480068401E03
:101200000849086000F0ECFB204600F062F800BFDF
:10121000044800680028D7D170BD00003C010002DE
:10122000100000020C00000270B504460D46206C50
:1012300070B1216CE0680844E0606168E068884251
:1012400001D32068E0602846226CE168FFF79CF932
:1012500070BD2DE9F04104460E4615460027206C6E
:1012600040B9206878BB606801F012FA0746002098
:10127000606028E07DB93146226CA068FFF784F9F0
:10128000216CA0680844A060D4E9011088421AD3F8
:101290002068A06017E03146226CE068FFF774F91F
:1012A000216CE068401AE0602168E068884203D25F
:1012B000216C6068401AE060022D04D1A06B10B16F
:1012C000A06B401EA063A06B401CA0633846BDE825
:1012D000F08110B50446206B00F098FB204600F02A
:1012E00095FB10BD0146084A126812680AB901222E
:1012F00000E000220A600A6822B9034A1268D26834
:10130000106800E0002070473800000200BFFFF7BF
:1013100059FF04480068012801D900F0BBFB00F028
:10132000A1FAF4E79C0000022DE9F04704460F46BD
:1013300015469946DDF82080002607E0B95D04F1E6
:1013400034008155B85D00B902E0761C0A2EF5D351
:1013500000BF00213D200155052D00D30425E56285
:10136000A5640020E064201D00F0EEFA04F11800EE
:1013700000F0EAFA2461C5F10500A0616462002072
:10138000206584F85400BDE8F087000010B5002403
:1013900007E004EB84010F4A02EB810000F0C7FA7A
:1013A000641C052CF5D30C4800F0C1FA0B4800F082
:1013B000BEFA0B4800F0BBFA0A4800F0B8FA0A4837
:1013C00000F0B5FA04480949086004480849086073
:1013D00010BD00009C000002000100021401000288
:1013E000280100023C01000250010002040000023A
:1013F000080000022DE9F04104460D4616461F463E
:101400004FF0000865602461B5420CD8F01BA1695B
:10141000884202D34FF0010811E0211D09480068FD
:1014200000F095FA0BE0BE4204D2BD4202D34FF069
:10143000010804E0211D0448006800F088FA4046D5
:10144000BDE8F0813C0000023800000270B505469E
:1014500000F0A4FAA86B08B9012400E0002400F011
:10146000BFFA204670BD70B5054600F097FAA86B2C
:10147000E96B884201D1012400E0002400F0B0FAB9
:10148000204670BDF8B505460F4613480068C06891
:10149000C468201D00F0D2F9E069012817D1A069C5
:1014A00041192B463A462046FFF7A4FF01280ED1EA
:1014B000002003462A4601460090204601F01CFA0F
:1014C00006461EB9FEF7B8FE00BFFEE700BF204685
:1014D000616A8847F8BD00003800000270B586B028
:1014E0005DE0039800285ADB059C606908B901207B
:1014F00000E0002010B9201D00F0A0F902A800F0C3
:10150000A7F8054603980A2847D2DFE800F0090546
:10151000072B2D4206082C2E00BF00BF00BF00BFC6
:101520000498A269811803462A462046FFF762FF05
:10153000012816D12046616A8847E069012810D148
:10154000002000900498A169421800231946204603
:1015500001F0D2F906461EB9FEF76EFE00BFFEE7A7
:1015600000BF1BE000BF19E000BF0498A061A069A4
:1015700008B1012000E0002018B9FEF75DFE00BFB1
:10158000FEE7A06941192B462A462046FFF732FFA5
:1015900004E0204600F03AFA00E000BF00BF00235C
:1015A0001A4603A90348006800F0FFFC002898D100
:1015B00006B070BD40000002F8B505460C4600F0CC
:1015C000FBFB684600F044F806460098F0B944B9C1
:1015D000B54206D801F0F8F831462846FFF752FF29
:1015E00016E03CB10B480068006808B9012000E033
:1015F00000200446A91B22460748006800F06CFA48
:1016000001F0E2F820B900F045FA01E001F0DCF861
:10161000F8BD00003C000002400000020A490968D1
:10162000096809B9012100E0002121B14FF0FF3123
:10163000064A116006E004490968C968C868034A97
:101640004168116070470000040000023000000291
:1016500070B5044600F070FF0546074800688542F3
:1016600004D200F015F80120206001E00020206085
:1016700001480560284670BD4400000210B5FFF720
:101680009BFCFFF701FA00210846FFF721FA10BD85
:101690002DE9F8432BE020480068C06805681E4823
:1016A0000068C068C468201D00F0C8F82046616A60
:1016B0008847E06901281AD1A0694619AE4207D9C6
:1016C00066602461211D1448006800F040F90EE0B6
:1016D000002003462A4601460090204601F00CF9FE
:1016E00007461FB9FEF7A8FD00BFFEE700BF0A4886
:1016F0000068006808B9012000E000200028CAD076
:101700000548D0F800800548006803490860034890
:10171000C0F80080BDE8F883380000023C000002F9
:1017200007480068401C08B9012000E0002018B9F3
:10173000FEF782FD00BFFEE7FEF77EFD00BFFEE77D
:101740004800000208B500BF6846FFF7CBFD04461D
:1017500020460099FFF730FFFFF7C0FEF4E710B511
:10176000044600F01BF911E0606A08B9012000E0AE
:10177000002038B904F1240000F0E0FF18B100F0B7
:1017800005FA00E005E0A06C401EA064A06C0028F3
:10179000EADC00BF4FF0FF30A06400F021F900F058
:1017A000FDF811E0206908B9012000E0002050B9DF
:1017B00004F1100000F0C2FF08B100F0E7F9606C1E
:1017C000401E606400E002E0606C0028EADC00BFBC
:1017D0004FF0FF30606400F003F910BD70B50546AE
:1017E00000F0EAFA2846FEF753FD044600F0ECFF4D
:1017F0000CB900F039F8204670BD000006480068BA
:1018000030B10549096801F14C00C96C491C0160FF
:10181000014800687047000000000002001F4FF000
:1018200080730360001F0160001F034B03601438C6
:1018300002602038704700002117000001460A6945
:10184000D1E901309860D1E90103586050688842BD
:1018500001D188685060002008611068401E106047
:101860001068704730BF704703A0FFF79DF9FEF77F
:10187000E3FC00BFFEE700004449453A4552524FA1
:10188000523A4672656552544F533A204D616C6C22
:101890006F63204661696C757265210D0A00000056
:1018A0000C46214603A0FEF7C9FDFEF7C5FC00BFAC
:1018B000FEE700004449453A4552524F523A4672BB
:1018C000656552544F533A20537461636B206F76B1
:1018D0006572666C6F7720696E207461736B20256A
:1018E000730D0A007047002408E021460020FFF72E
:1018F000EFF884F00104A62000F010F9F5E70024C9
:1019000008E021460120FFF7E3F884F001044720B6
:1019100000F004F9F5E7002408E021460220FFF773
:10192000D7F884F00104232000F0F8F8F5E700F17F
:10193000080141604FF0FF31816000F10801C16092
:10194000016100210160704700210161704710B5FD
:1019500002460B685C1C0CB9106907E002F1080034
:1019600000E04068446824689C42FAD944684C60AE
:101970004C68A160886041600A611468641C14604E
:1019800010BD42684A6093688B60936859609160AB
:10199000086103685B1C03607047000010B5FEF728
:1019A0004BFC0D480068401C0B490860BFF34F8F8B
:1019B000BFF36F8F0846006801280BD10748006805
:1019C000C0B208B9012000E0002018B9FEF734FCCD
:1019D00000BFFEE710BD00004800000204ED00E07B
:1019E00010B50948006818B9FEF726FC00BFFEE7ED
:1019F00005480068401E044908600846006810B9A0
:101A00000020FEF720FC10BD4800000210B504467F
:101A100034B100F0D1F92046FEF772FC00F0D4FE9C
:101A200010BD000003484FF0E02148610720086125
:101A300070470000DF1C030070B5FEF707FC054689
:101A4000102D0FD305F1E02090F8F0430E480078F8
:101A5000844201DB012000E0002018B9FEF7ECFB16
:101A600000BFFEE70948006800F4E0600849096823
:101A7000884201D8012000E0002018B9FEF7DCFB05
:101A800000BFFEE770BD00004C0000020CED00E05E
:101A9000500000024FF0805003490860BFF34F8FA1
:101AA000BFF36F8F7047000004ED00E00246002096
:101AB0000BE0084B53F8303033B9064B43F8301085
:101AC00003EBC0035A6002E0401C0828F1D300BFBA
:101AD000704700005C0000022DE9F04105460E460B
:101AE00017462C46FFF75AFF606C401C08B90020CF
:101AF0006064A06C401C08B90020A064FFF770FF70
:101B0000A06B28B93A46314604F1240000F07CF875
:101B10002046FFF724FEBDE8F081000070B50446C2
:101B2000002634B31548006808B9012000E0002001
:101B300018B9FEF781FB00BFFEE700F03DF9104841
:101B4000006805190F480068001DFFF777FE50B9BF
:101B50000C48006890F82C10012088400A49096858
:101B60008143094801602846FFF7A6FA00F02CFEE1
:101B700006460EB9FFF78EFF70BD0000340000026C
:101B800014000002000000021800000201200149B8
:101B9000086070472400000270B505460C461DB968
:101BA000FEF74AFB00BFFEE71348016818312846DC
:101BB000FFF7CDFE10480068001DFFF73FFE50B94B
:101BC0000D48006890F82C10012088400B490968E6
:101BD00081430A480160601C30B907480168091D4B
:101BE0000748FFF7CEFE05E00648006806193046B4
:101BF000FFF762FA70BD000000000002180000024A
:101C000050010002140000022DE9F04104460D4687
:101C100016461CB9FEF710FB00BFFEE7134801682B
:101C200018312046FFF7ADFE10480068001DFFF791
:101C300005FE50B90D48006890F82C10012088402E
:101C40000B49096881430A480160012E06D1074803
:101C50000168091D0748FFF794FE05E00648006883
:101C600047193846FFF728FABDE8F0810000000266
:101C700018000002500100021400000270B5054671
:101C80002C46002D4BD02649E06A0968C96A884273
:101C900045D2A06900F0004028B921480068C06A18
:101CA000C0F10500A061E16A01EB81011D4A02EB70
:101CB00081016069884201D1012000E0002050B319
:101CC000201DFFF7BBFD78B9E06A00EB80001549E5
:101CD00051F8200040B994F82C1001208840124996
:101CE00009688143104801600D480068C06AE062DD
:101CF00094F82C10012088400B49096808430A49D0
:101D00000860E16A01EB8101064A02EB8100211DB6
:101D1000FFF737FE03E002480068C06AE06270BD6A
:101D2000000000029C0000021800000210B50446EA
:101D30001CB9FEF781FA00BFFEE703480068206087
:101D400002480068606010BD280000021400000214
:101D50001FB500200090019002900346822210A13E
:101D60000390114800F03CFB0446012C02D100F026
:101D70009FFD0446012C0DD1FEF75EFAA01E0B4913
:101D8000086001200A49086000200A49086000F044
:101D900087F804E01CB9FEF74FFA00BFFEE71FBD4D
:101DA00049444C45000000000D13000030000002C3
:101DB0001C0000021400000202480068401C014997
:101DC000086070473400000270B52748006818B1F9
:101DD00001202649086046E0002024490860244884
:101DE0000068046B4FF0A5352068B0F1A53F0BD11A
:101DF0006068B0F1A53F07D1A068B0F1A53F03D15D
:101E0000E068B0F1A53F05D0194801683431006899
:101E1000FFF746FD17480068B0FA80F0C0F11F04D4
:101E200004EB8400144951F8200008B1012000E0BF
:101E3000002018B9FEF700FA00BFFEE704EB8401AA
:101E40000D4A02EB810041684968416000F10801D8
:101E500042688A4202D14168496841604168C96864
:101E6000034A116000BF70BD34000002240000026C
:101E700000000002180000029C000002002408E09C
:101E8000214604A0FEF7DAFA641C4FF47A70FFF7DB
:101E900045FEF5E75469636B3A202564200D0A007E
:101EA0001CB52248014609780191FF2102461170B4
:101EB0000146097800919DF8001001F0A0011C4A2C
:101EC000117007211B4A116009E01A490968491E6F
:101ED000184A11609DF800104906090E00919DF8FE
:101EE000001001F080018029EFD012490968090231
:101EF000104A11601146098801F4E06111600B4A33
:101F0000019911700C48006840F078700A49086027
:101F10000846006840F060400860FFF783FD00203D
:101F200006490860FEF756F900201CBD00E400E0F9
:101F30004C0000025000000220ED00E048000002CA
:101F40002DE9F04706460D4690464FF000090EB1C8
:101F5000012000E0002018B9FEF76EF900BFFEE78F
:101F60000DB9002702E006FB05F0471C07F15400FD
:101F7000FFF734FC044674B10DB9246002E004F1AB
:101F800054002060E66325640121204600F0BAF881
:101F900084F85080A146B9F1000F03D1FEF74CF947
:101FA00000BFFEE74846BDE8F0872DE9FF4383B058
:101FB00005460E461F464FF000092C461CB9FEF799
:101FC0003BF900BFFEE70EB9206C08B9012000E024
:101FD000002018B9FEF730F900BFFEE700F09CFAC8
:101FE00008B9059808B9012000E0002018B9FEF7EB
:101FF00023F900BFFEE700BFFFF7D0FCA06B90B352
:10200000D4F80C8031462046FFF70EF9B7B9A06B23
:10201000401EA063206810B9FFF7F0FB60602069E4
:1020200008B9012000E00020B8B904F1100000F068
:1020300085FB012811D1FFF72DFD0EE0C4F80C80BF
:10204000606A08B9012000E0002030B904F12400E2
:1020500000F074FB08B1FFF71DFDFFF7C1FC012084
:1020600007B0BDE8F083FFE7059818B9FFF7B8FCA3
:102070000020F5E7B9F1000F04D101A8FFF756FEE3
:102080004FF00109FFF7ACFCFFF796FEFFF786FC67
:10209000606C401C08B900206064A06C401C08B94A
:1020A0000020A064FFF79CFC05A901A800F05EF9E0
:1020B00008BB2046FFF7CAF9B8B1206830B9FFF76E
:1020C0006DFC6068FFF7DAFDFFF78AFC04F124007D
:1020D0000599FFF761FD2046FFF741FB00F074FB17
:1020E000002889D1FFF7D6FC86E72046FFF737FBAB
:1020F00000F06AFB80E72046FFF731FB00F064FB4D
:102100000020ADE770B505460E462C461CB9FEF71B
:1021100093F800BFFEE7FFF741FCD4E90F122068F7
:1021200001FB020060600020A0632068A060E06BFB
:10213000401E226C216800FB0210E0604FF0FF306F
:102140006064A06476B9206908B9012000E000202D
:1021500080B904F1100000F0F1FA01280AD1FFF76C
:1021600099FC07E004F11000FFF7E1FB04F1240003
:10217000FFF7DDFBFFF734FC012070BD2DE9FF43C5
:1021800083B0064688461D464FF0000934461CB908
:10219000FEF752F800BFFEE7B8F1000F01D1206C46
:1021A00008B9012000E0002018B9FEF745F800BF8B
:1021B000FEE7022D02D1E06B012801D1012000E0F1
:1021C000002018B9FEF738F800BFFEE700F0A4F9C8
:1021D00008B9059808B9012000E0002018B9FEF7F9
:1021E0002BF800BFFEE700BFFFF7D8FBA06BE16B49
:1021F000884201D3022D1DD12A4641462046FFF7D1
:1022000028F80746606A08B9012000E0002040B9BC
:1022100004F1240000F092FA012805D1FFF73AFCFE
:1022200002E00FB1FFF736FCFFF7DAFB012007B041
:10223000BDE8F083059818B9FFF7D2FB0020F6E758
:10224000B9F1000F04D101A8FFF770FD4FF00109AB
:10225000FFF7C6FBFFF7B0FDFFF7A0FB606C401C6B
:1022600008B900206064A06C401C08B90020A0647C
:10227000FFF7B6FB05A901A800F078F8C0B9204621
:10228000FFF7F1F870B104F110000599FFF784FC35
:102290002046FFF764FA00F097FA0028A4D1FFF770
:1022A000F9FBA1E72046FFF75AFA00F08DFA9BE709
:1022B0002046FFF754FA00F087FA0020B7E72DE92F
:1022C000F0470646894617461D4634461CB9FDF7B9
:1022D000B3FF00BFFEE7B9F1000F01D1206C08B9D0
:1022E000012000E0002018B9FDF7A6FF00BFFEE7BF
:1022F000022D02D1E06B012801D1012000E0002075
:1023000018B9FDF799FF00BFFEE7FFF795FBFDF752
:1023100093FF8246A06BE16B884201D3022D1CD152
:102320002A4649462046FEF794FFA06C401C70B92F
:10233000606A08B9012000E0002058B904F12400C7
:1023400000F0FCF930B12FB10120386002E0A06C40
:10235000401CA0644FF0010801E04FF00008504617
:10236000FDF771FF4046BDE8F08700002DE9F04120
:1023700004460D461CB9FDF75FFF00BFFEE71DB91F
:10238000FDF75AFF00BFFEE7FFF708FB124807689A
:102390002868401C08B9002619E01049206809681F
:1023A000884204D06068B84201D801260FE0606816
:1023B000381A2968884209D228686168791A401A4F
:1023C00028602046FFF7B2FC002600E00126FFF758
:1023D00007FB3046BDE8F08114000002280000022F
:1023E0002DE9FF4F81B0804616469A46DDE90E5B27
:1023F000B8F1000F03D1FDF71FFF00BFFEE7052D69
:1024000001D2012000E0002018B9FDF715FF00BF40
:10241000FEE730461099FEF779FE0446002C5DD0A9
:10242000701E216B01EB800929F0070909F00700F4
:1024300008B9012000E0002018B9FDF7FDFE00BF3B
:10244000FEE700962A462046119B0299FEF76CFF94
:10245000524641464846FFF7E1F92060BBF1000FC4
:1024600001D0CBF80040FFF799FA25480068401CDE
:10247000234908602348006840B9224804600846A0
:10248000006801280CD1FEF781FF09E01E480068B2
:1024900030B91C480068C06AA84201D819480460D5
:1024A0001A480068401C1949086008460068206402
:1024B00094F82C10012088401549096808431449F4
:1024C0000860E16A01EB8101124A02EB8100211DE3
:1024D000FFF757FA0127FFF783FA01E04FF0FF37C4
:1024E000012F09D10848006830B106480068C06A69
:1024F000A84201D2FFF7CEFA384605B0BDE8F08F0A
:1025000010000002000000021C0000022C0000026B
:10251000180000029C0000020549096809B9012061
:1025200005E00449096809B9022000E0002070476D
:102530001C000002340000020149086870470000D6
:10254000140000022DE9F0414FF0000845480068F2
:10255000002877D144480068401C43490860084679
:102560000668DEB941480068006808B9012000E04B
:10257000002018B9FDF760FE00BFFEE73B48076882
:102580003B480068394908603948076039480068A5
:10259000401C38490860FFF741F800BF3648006822
:1025A00086423CD300BF31480068006808B901206A
:1025B00000E0002020B14FF0FF302F4908602DE0EF
:1025C0002A480068C068C4686568AE4202D22A48DA
:1025D000056023E0201DFFF731F9A06A18B104F16E
:1025E0001800FFF72BF994F82C100120884023499C
:1025F0000968084321490860E16A01EB8101204A2A
:1026000002EB8100211DFFF7BCF91E49E06A096851
:10261000C96A8842C7D34FF00108C4E700BF194810
:102620000068C06A00EB8000154951F820000128BD
:1026300001D94FF001081448006850B9FFF752F96A
:1026400007E0FFE710480068401C0F490860FFF7EB
:1026500049F90E48006808B14FF001084046BDE84E
:10266000F0810000340000021400000204000002A7
:1026700008000002280000023000000218000002DA
:102680009C00000200000002200000022400000262
:1026900070B505462C460026002D47D0244800681A
:1026A000844201D1012000E0002018B9FDF7C4FDEB
:1026B00000BFFEE7E06C18B9FDF7BEFD00BFFEE706
:1026C000E06C401EE064A16CE06A88422ED0E06CB1
:1026D00060BB201DFFF7B2F878B9E06A00EB80001C
:1026E000144951F8200040B994F82C10012088407A
:1026F00011490968814310480160A06CE062E06AFA
:10270000C0F10500A06194F82C10012088400A490E
:102710000968084308490860E16A01EB8101054A3C
:1027200002EB8100211DFFF72CF90126304670BD18
:10273000000000029C0000021800000270B506466E
:10274000F068C4681CB9FDF777FD00BFFEE704F12F
:102750001800FFF773F816480068A8B9201DFFF7A6
:102760006DF894F82C10012088401249096808433C
:1027700010490860E16A01EB81010F4A02EB810018
:10278000211DFFF7FEF804E004F118010B48FFF7E4
:10279000F8F80B49E06A0968C96A884204D901253A
:1027A00001200849086000E00025284670BD0000AF
:1027B00034000002180000029C0000022801000200
:1027C000000000022400000270B5002530480068B7
:1027D00018B9FDF731FD00BFFEE7FFF7DFF82C4821
:1027E0000068401E2A4908600846006800284BD14E
:1027F00028480068002847D024E02748C068C468FB
:1028000004F11800FFF71AF8201DFFF717F894F8E5
:102810002C10012088402149096808431F4908609D
:10282000E16A01EB81011E4A02EB8100211DFFF7E5
:10283000A8F81C49E06A0968C96A884202D30120E5
:10284000194908601448006808B9012000E0002018
:102850000028D2D01548006878B10AE0FFF772FE70
:1028600010B101201049086010480068401E0F494F
:1028700008600E4800680028F0D10B480068012865
:1028800002D10125FFF706F9FFF7AAF8284670BD27
:1028900034000002100000022801000218000002AB
:1028A0009C00000200000002240000022000000240
:1028B0001FB50024FEF74CFC0B48006860B10020F7
:1028C00000900190029003464FF4827207A103909A
:1028D0000848FFF785FD04461CB9FDF7ADFC00BFB5
:1028E000FEE7204604B010BD40000002546D722087
:1028F00053766300451700002DE9FE4304460D465C
:1029000016461F46DDF828804FF000091CB9FDF778
:1029100093FC00BFFEE71448006810B300950196D1
:102920000294062D15DAFFF7F7FD022808D10023DF
:10293000424669460C480068FFF720FC814610E0DB
:1029400000231A46694608480068FFF717FC8146CD
:1029500007E000233A46694603480068FFF7AFFCEA
:1029600081464846BDE8FE8340000002001BB700D8
:1029700000800000190301000001010101010104B0
:10298000060807050102040810000000705A0168DB
:102990000090000000198000000380000101800009
:1029A00000028000001E80000011800000198000DD
:1029B000010180000017800000168000000B8000DD
:1029C000001F80000103000000040000000500005B
:1029D000000700000008000000090000000A0000D5
:1029E00001048000010580000106800001078000CD
:1029F00001088000000D800000128000000B8000A4
:102A0000001F8000010B8800282A0000000000023F
:102A10005C00000038010000842A00005C00000215
:102A200094040000540100000000000000000000B9
:102A30000000000000000000000000000000000096
:102A40000000000000000000000000000000000086
:102A50000000000000000000000000000000000076
:102A60000000000000000000000000000000000066
:102A7000AAAAAAAA000000000000000000000000AE
:042A80000000000052
:04000005000000FDFA
:00000001FF
